{
  "transactions": [
    {
      "hash": "0xe4ccc821aee400b7312fd69693534d80615c4e530ddf59dbe16d004c23835684",
      "transactionType": "CALL",
      "contractName": null,
      "contractAddress": "0x78137Bb8588D1a8942E73C62881482b1dc650F40",
      "function": "approve(address,uint256)",
      "arguments": [
        "0xC11705DfC88141B01d79187d0C01CcF1c182Ddc5",
        "1000000000000000000000"
      ],
      "transaction": {
        "type": "0x00",
        "from": "0xbfe5e7792a91d6f91626d0f08c8052702c9b9c51",
        "to": "0x78137bb8588d1a8942e73c62881482b1dc650f40",
        "gas": "0xfa41",
        "value": "0x0",
        "data": "0x095ea7b3000000000000000000000000c11705dfc88141b01d79187d0c01ccf1c182ddc500000000000000000000000000000000000000000000003635c9adc5dea00000",
        "nonce": "0x18"
      },
      "additionalContracts": [],
      "isFixedGasLimit": false
    },
    {
      "hash": "0x25a22a90e12bc2b266e4691495623a041ccd9b8e6eee0926db70efec25118dec",
      "transactionType": "CALL",
      "contractName": null,
      "contractAddress": "0xC11705DfC88141B01d79187d0C01CcF1c182Ddc5",
      "function": "mint(uint256)",
      "arguments": [
        "1"
      ],
      "transaction": {
        "type": "0x00",
        "from": "0xbfe5e7792a91d6f91626d0f08c8052702c9b9c51",
        "to": "0xc11705dfc88141b01d79187d0c01ccf1c182ddc5",
        "gas": "0x29f7c",
        "value": "0x0",
        "data": "0xa0712d680000000000000000000000000000000000000000000000000000000000000001",
        "nonce": "0x19"
      },
      "additionalContracts": [],
      "isFixedGasLimit": false
    }
  ],
  "receipts": [],
  "libraries": [],
  "pending": [
    "0xe4ccc821aee400b7312fd69693534d80615c4e530ddf59dbe16d004c23835684",
    "0x25a22a90e12bc2b266e4691495623a041ccd9b8e6eee0926db70efec25118dec"
  ],
  "returns": {},
  "timestamp": 1724050903,
  "chain": 80002,
  "multi": false,
  "commit": "f2652f8"
}