{
  "transactions": [
    {
      "hash": "0xe4ccc821aee400b7312fd69693534d80615c4e530ddf59dbe16d004c23835684",
      "transactionType": "CALL",
      "contractName": null,
      "contractAddress": "0x78137Bb8588D1a8942E73C62881482b1dc650F40",
      "function": "approve(address,uint256)",
      "arguments": [
        "0xC11705DfC88141B01d79187d0C01CcF1c182Ddc5",
        "1000000000000000000000"
      ],
      "transaction": {
        "type": "0x00",
        "from": "0xbfe5e7792a91d6f91626d0f08c8052702c9b9c51",
        "to": "0x78137bb8588d1a8942e73c62881482b1dc650f40",
        "gas": "0xfa41",
        "value": "0x0",
        "data": "0x095ea7b3000000000000000000000000c11705dfc88141b01d79187d0c01ccf1c182ddc500000000000000000000000000000000000000000000003635c9adc5dea00000",
        "nonce": "0x18"
      },
      "additionalContracts": [],
      "isFixedGasLimit": false
    },
    {
      "hash": "0x25a22a90e12bc2b266e4691495623a041ccd9b8e6eee0926db70efec25118dec",
      "transactionType": "CALL",
      "contractName": null,
      "contractAddress": "0xC11705DfC88141B01d79187d0C01CcF1c182Ddc5",
      "function": "mint(uint256)",
      "arguments": [
        "1"
      ],
      "transaction": {
        "type": "0x00",
        "from": "0xbfe5e7792a91d6f91626d0f08c8052702c9b9c51",
        "to": "0xc11705dfc88141b01d79187d0c01ccf1c182ddc5",
        "gas": "0x29f7c",
        "value": "0x0",
        "data": "0xa0712d680000000000000000000000000000000000000000000000000000000000000001",
        "nonce": "0x19"
      },
      "additionalContracts": [],
      "isFixedGasLimit": false
    }
  ],
  "receipts": [
    {
      "transactionHash": "0xe4ccc821aee400b7312fd69693534d80615c4e530ddf59dbe16d004c23835684",
      "transactionIndex": "0x2",
      "blockHash": "0x678dbec2d5dfb727de1ef21ad8422c8bf19718e801d0dc42aa5ab580fd5f46f5",
      "blockNumber": "0xa6549a",
      "from": "0xBfE5E7792A91d6f91626d0F08c8052702c9b9c51",
      "to": "0x78137Bb8588D1a8942E73C62881482b1dc650F40",
      "cumulativeGasUsed": "0x47c53",
      "gasUsed": "0xb52f",
      "contractAddress": null,
      "logs": [
        {
          "address": "0x78137Bb8588D1a8942E73C62881482b1dc650F40",
          "topics": [
            "0x8c5be1e5ebec7d5bd14f71427d1e84f3dd0314c0f7b2291e5b200ac8c7c3b925",
            "0x000000000000000000000000bfe5e7792a91d6f91626d0f08c8052702c9b9c51",
            "0x000000000000000000000000c11705dfc88141b01d79187d0c01ccf1c182ddc5"
          ],
          "data": "0x00000000000000000000000000000000000000000000003635c9adc5dea00000",
          "blockHash": "0x678dbec2d5dfb727de1ef21ad8422c8bf19718e801d0dc42aa5ab580fd5f46f5",
          "blockNumber": "0xa6549a",
          "transactionHash": "0xe4ccc821aee400b7312fd69693534d80615c4e530ddf59dbe16d004c23835684",
          "transactionIndex": "0x2",
          "logIndex": "0x8",
          "removed": false
        },
        {
          "address": "0x0000000000000000000000000000000000001010",
          "topics": [
            "0x4dfe1bbbcf077ddc3e01291eea2d5c70c2b422b415d95645b9adcfd678cb1d63",
            "0x0000000000000000000000000000000000000000000000000000000000001010",
            "0x000000000000000000000000bfe5e7792a91d6f91626d0f08c8052702c9b9c51",
            "0x0000000000000000000000006ab3d36c46ecfb9b9c0bd51cb1c3da5a2c81cea6"
          ],
          "data": "0x00000000000000000000000000000000000000000000000000083d412fe3ae3f00000000000000000000000000000000000000000000000005d02ffde95eed800000000000000000000000000000000000000000000002b02e9e216ac2daf9ba00000000000000000000000000000000000000000000000005c7f2bcb97b3f410000000000000000000000000000000000000000000002b02ea65eabf2bea7f9",
          "blockHash": "0x678dbec2d5dfb727de1ef21ad8422c8bf19718e801d0dc42aa5ab580fd5f46f5",
          "blockNumber": "0xa6549a",
          "transactionHash": "0xe4ccc821aee400b7312fd69693534d80615c4e530ddf59dbe16d004c23835684",
          "transactionIndex": "0x2",
          "logIndex": "0x9",
          "removed": false
        }
      ],
      "status": "0x1",
      "logsBloom": "0x00000000080000000000000000000000000000000000000000000000000000000000000000000000000000000000000000008000000000000000000000200000000000080000000040000000000000800000000000000000000100000000000010000000000000000000000000000000000000000000000080000000000008000000000000000000000000000000000000000000000000000400000000000000220000000800000000000000000001000000000000000000000000000000004000000000000000000001000000400800000000010000000000100000004000000010000000000000000000000000000000000000000000000000000000100000",
      "type": "0x0",
      "effectiveGasPrice": "0xba43b7400"
    },
    {
      "transactionHash": "0x25a22a90e12bc2b266e4691495623a041ccd9b8e6eee0926db70efec25118dec",
      "transactionIndex": "0x0",
      "blockHash": "0x53bd2bd7247054b2e8bd6c75c706369d431a7841894492639ebfd7ba299f3d57",
      "blockNumber": "0xa6549b",
      "from": "0xBfE5E7792A91d6f91626d0F08c8052702c9b9c51",
      "to": "0xC11705DfC88141B01d79187d0C01CcF1c182Ddc5",
      "cumulativeGasUsed": "0x1e625",
      "gasUsed": "0x1e625",
      "contractAddress": null,
      "logs": [
        {
          "address": "0x78137Bb8588D1a8942E73C62881482b1dc650F40",
          "topics": [
            "0xddf252ad1be2c89b69c2b068fc378daa952ba7f163c4a11628f55a4df523b3ef",
            "0x000000000000000000000000bfe5e7792a91d6f91626d0f08c8052702c9b9c51",
            "0x000000000000000000000000bfe5e7792a91d6f91626d0f08c8052702c9b9c51"
          ],
          "data": "0x0000000000000000000000000000000000000000000000008ac7230489e80000",
          "blockHash": "0x53bd2bd7247054b2e8bd6c75c706369d431a7841894492639ebfd7ba299f3d57",
          "blockNumber": "0xa6549b",
          "transactionHash": "0x25a22a90e12bc2b266e4691495623a041ccd9b8e6eee0926db70efec25118dec",
          "transactionIndex": "0x0",
          "logIndex": "0x0",
          "removed": false
        },
        {
          "address": "0xC11705DfC88141B01d79187d0C01CcF1c182Ddc5",
          "topics": [
            "0xddf252ad1be2c89b69c2b068fc378daa952ba7f163c4a11628f55a4df523b3ef",
            "0x0000000000000000000000000000000000000000000000000000000000000000",
            "0x000000000000000000000000bfe5e7792a91d6f91626d0f08c8052702c9b9c51",
            "0x0000000000000000000000000000000100000000000000000000000000000000"
          ],
          "data": "0x",
          "blockHash": "0x53bd2bd7247054b2e8bd6c75c706369d431a7841894492639ebfd7ba299f3d57",
          "blockNumber": "0xa6549b",
          "transactionHash": "0x25a22a90e12bc2b266e4691495623a041ccd9b8e6eee0926db70efec25118dec",
          "transactionIndex": "0x0",
          "logIndex": "0x1",
          "removed": false
        },
        {
          "address": "0xC11705DfC88141B01d79187d0C01CcF1c182Ddc5",
          "topics": [
            "0x1279de65ce8e999b2797bac1598da8d4592bce0ac93a059ecf01458a490940f5",
            "0x0000000000000000000000000000000000000000000000000000000000000001",
            "0x000000000000000000000000bfe5e7792a91d6f91626d0f08c8052702c9b9c51"
          ],
          "data": "0x0000000000000000000000000000000100000000000000000000000000000000",
          "blockHash": "0x53bd2bd7247054b2e8bd6c75c706369d431a7841894492639ebfd7ba299f3d57",
          "blockNumber": "0xa6549b",
          "transactionHash": "0x25a22a90e12bc2b266e4691495623a041ccd9b8e6eee0926db70efec25118dec",
          "transactionIndex": "0x0",
          "logIndex": "0x2",
          "removed": false
        },
        {
          "address": "0x0000000000000000000000000000000000001010",
          "topics": [
            "0x4dfe1bbbcf077ddc3e01291eea2d5c70c2b422b415d95645b9adcfd678cb1d63",
            "0x0000000000000000000000000000000000000000000000000000000000001010",
            "0x000000000000000000000000bfe5e7792a91d6f91626d0f08c8052702c9b9c51",
            "0x0000000000000000000000006ab3d36c46ecfb9b9c0bd51cb1c3da5a2c81cea6"
          ],
          "data": "0x00000000000000000000000000000000000000000000000000161b779ab347d500000000000000000000000000000000000000000000000005c7f2bcb970a1800000000000000000000000000000000000000000000002b02ec3fd4f972a87f900000000000000000000000000000000000000000000000005b1d7451ebd59ab0000000000000000000000000000000000000000000002b02eda18c731ddcfce",
          "blockHash": "0x53bd2bd7247054b2e8bd6c75c706369d431a7841894492639ebfd7ba299f3d57",
          "blockNumber": "0xa6549b",
          "transactionHash": "0x25a22a90e12bc2b266e4691495623a041ccd9b8e6eee0926db70efec25118dec",
          "transactionIndex": "0x0",
          "logIndex": "0x3",
          "removed": false
        }
      ],
      "status": "0x1",
      "logsBloom": "0x00000000080000000000000000000000000000000000000000000000000000000000000000000000000000000000000000008000000000200000000000040040000000080000000000000008000000800000000000040000000100000000000000000000020000000000000020000800000100040000000080000010000008000000000000000000000000000000000000000000000000000400000000000000200000000800000000002000000001000000000008000000000000000000004000000002000000000001000000000800000000010000000000100000804060000000000000000000000000000000000000000000000000000000040000100000",
      "type": "0x0",
      "effectiveGasPrice": "0xba43b7400"
    }
  ],
  "libraries": [],
  "pending": [],
  "returns": {},
  "timestamp": 1724050910,
  "chain": 80002,
  "multi": false,
  "commit": "f2652f8"
}