{
  "transactions": [
    {
      "hash": "0x19f98af0e50744445995d6a9a77a6765088dc030b34fdf6c771d3f5bd66b78a7",
      "transactionType": "CALL",
      "contractName": "MiningPassFactory",
      "contractAddress": "0x793C94C1e45f9Bb5801E08898Ff16743a8561BcD",
      "function": "grantRole(bytes32,address)",
      "arguments": [
        "0x0000000000000000000000000000000000000000000000000000000000000000",
        "0xB90C7395D52e8af26773EB89250DbEaAAc107c01"
      ],
      "transaction": {
        "type": "0x00",
        "from": "0x3212dbfca59b74f5ed208b64f171a0c8bcf2e8c0",
        "to": "0x793c94c1e45f9bb5801e08898ff16743a8561bcd",
        "gas": "0x12401",
        "value": "0x0",
        "data": "0x2f2ff15d0000000000000000000000000000000000000000000000000000000000000000000000000000000000000000b90c7395d52e8af26773eb89250dbeaaac107c01",
        "nonce": "0x3"
      },
      "additionalContracts": [],
      "isFixedGasLimit": false
    }
  ],
  "receipts": [],
  "libraries": [],
  "pending": [
    "0x19f98af0e50744445995d6a9a77a6765088dc030b34fdf6c771d3f5bd66b78a7"
  ],
  "returns": {},
  "timestamp": 1725510818,
  "chain": 137,
  "multi": false,
  "commit": "d158120"
}