{
  "transactions": [
    {
      "hash": "0x19f98af0e50744445995d6a9a77a6765088dc030b34fdf6c771d3f5bd66b78a7",
      "transactionType": "CALL",
      "contractName": "MiningPassFactory",
      "contractAddress": "0x793C94C1e45f9Bb5801E08898Ff16743a8561BcD",
      "function": "grantRole(bytes32,address)",
      "arguments": [
        "0x0000000000000000000000000000000000000000000000000000000000000000",
        "0xB90C7395D52e8af26773EB89250DbEaAAc107c01"
      ],
      "transaction": {
        "type": "0x00",
        "from": "0x3212dbfca59b74f5ed208b64f171a0c8bcf2e8c0",
        "to": "0x793c94c1e45f9bb5801e08898ff16743a8561bcd",
        "gas": "0x12401",
        "value": "0x0",
        "data": "0x2f2ff15d0000000000000000000000000000000000000000000000000000000000000000000000000000000000000000b90c7395d52e8af26773eb89250dbeaaac107c01",
        "nonce": "0x3"
      },
      "additionalContracts": [],
      "isFixedGasLimit": false
    }
  ],
  "receipts": [
    {
      "transactionHash": "0x19f98af0e50744445995d6a9a77a6765088dc030b34fdf6c771d3f5bd66b78a7",
      "transactionIndex": "0x2f",
      "blockHash": "0xae3c55cc9b59b76a7e2058f1df939c61786a94261d77218ce24f89db979e21e8",
      "blockNumber": "0x3a9803b",
      "from": "0x3212dBfCA59b74F5eD208b64f171a0C8BcF2e8C0",
      "to": "0x793C94C1e45f9Bb5801E08898Ff16743a8561BcD",
      "cumulativeGasUsed": "0x5e45a2",
      "gasUsed": "0xc7aa",
      "contractAddress": null,
      "logs": [
        {
          "address": "0x793C94C1e45f9Bb5801E08898Ff16743a8561BcD",
          "topics": [
            "0x2f8788117e7eff1d82e926ec794901d17c78024a50270940304540a733656f0d",
            "0x0000000000000000000000000000000000000000000000000000000000000000",
            "0x000000000000000000000000b90c7395d52e8af26773eb89250dbeaaac107c01",
            "0x0000000000000000000000003212dbfca59b74f5ed208b64f171a0c8bcf2e8c0"
          ],
          "data": "0x",
          "blockHash": "0xae3c55cc9b59b76a7e2058f1df939c61786a94261d77218ce24f89db979e21e8",
          "blockNumber": "0x3a9803b",
          "transactionHash": "0x19f98af0e50744445995d6a9a77a6765088dc030b34fdf6c771d3f5bd66b78a7",
          "transactionIndex": "0x2f",
          "logIndex": "0xf2",
          "removed": false
        },
        {
          "address": "0x0000000000000000000000000000000000001010",
          "topics": [
            "0x4dfe1bbbcf077ddc3e01291eea2d5c70c2b422b415d95645b9adcfd678cb1d63",
            "0x0000000000000000000000000000000000000000000000000000000000001010",
            "0x0000000000000000000000003212dbfca59b74f5ed208b64f171a0c8bcf2e8c0",
            "0x00000000000000000000000073d378cfeaa5cbe8daed64128ebdc91322aa586b"
          ],
          "data": "0x00000000000000000000000000000000000000000000000000056703f06dd80200000000000000000000000000000000000000000000000089cff197096e5dee0000000000000000000000000000000000000000000004e3fb80416aa653dede00000000000000000000000000000000000000000000000089ca8a93190085ec0000000000000000000000000000000000000000000004e3fb85a86e96c1b6e0",
          "blockHash": "0xae3c55cc9b59b76a7e2058f1df939c61786a94261d77218ce24f89db979e21e8",
          "blockNumber": "0x3a9803b",
          "transactionHash": "0x19f98af0e50744445995d6a9a77a6765088dc030b34fdf6c771d3f5bd66b78a7",
          "transactionIndex": "0x2f",
          "logIndex": "0xf3",
          "removed": false
        }
      ],
      "status": "0x1",
      "logsBloom": "0x0000000400000000000000000010000000000000000000000040000000000040000000000000000000000000000000000000800000000000000000000000000000000000000000000000020000000080000000000000000000010000008000000000010002000a000000000000000800000000000000000080100000000000000000000000000000000000000000000008010000000000000000000000000000200000000000000000000000100000000000000000000000001000000000004000000000000000000001000000000000000000000000000100100000000020000000000000000000000000000000000000000000000000000000000000100000",
      "type": "0x0",
      "effectiveGasPrice": "0x6ed3cf9a1"
    }
  ],
  "libraries": [],
  "pending": [],
  "returns": {},
  "timestamp": 1725510825,
  "chain": 137,
  "multi": false,
  "commit": "d158120"
}