{
  "transactions": [
    {
      "hash": "0xbcbe541f380fabcc1b31bae6929f573e8fda174262b18dbf156881c177e410c0",
      "transactionType": "CALL",
      "contractName": null,
      "contractAddress": "0xc2132D05D31c914a87C6611C10748AEb04B58e8F",
      "function": "approve(address,uint256)",
      "arguments": [
        "0x3255aca301b6c4D808103aB5ad243BeBDF1f419e",
        "10000000"
      ],
      "transaction": {
        "type": "0x00",
        "from": "0xbfe5e7792a91d6f91626d0f08c8052702c9b9c51",
        "to": "0xc2132d05d31c914a87c6611c10748aeb04b58e8f",
        "gas": "0x11712",
        "value": "0x0",
        "data": "0x095ea7b30000000000000000000000003255aca301b6c4d808103ab5ad243bebdf1f419e0000000000000000000000000000000000000000000000000000000000989680",
        "nonce": "0x5"
      },
      "additionalContracts": [],
      "isFixedGasLimit": false
    },
    {
      "hash": "0xb20c2cbd013bfcb4a55f5fe15b55c56777cd36df92cc39b21978e5ae874aae88",
      "transactionType": "CALL",
      "contractName": null,
      "contractAddress": "0x3255aca301b6c4D808103aB5ad243BeBDF1f419e",
      "function": "mint(uint256,uint256)",
      "arguments": [
        "1",
        "1"
      ],
      "transaction": {
        "type": "0x00",
        "from": "0xbfe5e7792a91d6f91626d0f08c8052702c9b9c51",
        "to": "0x3255aca301b6c4d808103ab5ad243bebdf1f419e",
        "gas": "0x28658",
        "value": "0x0",
        "data": "0x1b2ef1ca00000000000000000000000000000000000000000000000000000000000000010000000000000000000000000000000000000000000000000000000000000001",
        "nonce": "0x6"
      },
      "additionalContracts": [],
      "isFixedGasLimit": false
    }
  ],
  "receipts": [
    {
      "transactionHash": "0xbcbe541f380fabcc1b31bae6929f573e8fda174262b18dbf156881c177e410c0",
      "transactionIndex": "0x81",
      "blockHash": "0xcd1eaf54fc8ecca1776a923f59ecfd4d442c07e04b8ca7d4ed9a99c8ea77bfac",
      "blockNumber": "0x3a7dee1",
      "from": "0xBfE5E7792A91d6f91626d0F08c8052702c9b9c51",
      "to": "0xc2132D05D31c914a87C6611C10748AEb04B58e8F",
      "cumulativeGasUsed": "0x1196eb7",
      "gasUsed": "0xca0c",
      "contractAddress": null,
      "logs": [
        {
          "address": "0xc2132D05D31c914a87C6611C10748AEb04B58e8F",
          "topics": [
            "0x8c5be1e5ebec7d5bd14f71427d1e84f3dd0314c0f7b2291e5b200ac8c7c3b925",
            "0x000000000000000000000000bfe5e7792a91d6f91626d0f08c8052702c9b9c51",
            "0x0000000000000000000000003255aca301b6c4d808103ab5ad243bebdf1f419e"
          ],
          "data": "0x0000000000000000000000000000000000000000000000000000000000989680",
          "blockHash": "0xcd1eaf54fc8ecca1776a923f59ecfd4d442c07e04b8ca7d4ed9a99c8ea77bfac",
          "blockNumber": "0x3a7dee1",
          "transactionHash": "0xbcbe541f380fabcc1b31bae6929f573e8fda174262b18dbf156881c177e410c0",
          "transactionIndex": "0x81",
          "logIndex": "0x281",
          "removed": false
        },
        {
          "address": "0x0000000000000000000000000000000000001010",
          "topics": [
            "0x4dfe1bbbcf077ddc3e01291eea2d5c70c2b422b415d95645b9adcfd678cb1d63",
            "0x0000000000000000000000000000000000000000000000000000000000001010",
            "0x000000000000000000000000bfe5e7792a91d6f91626d0f08c8052702c9b9c51",
            "0x000000000000000000000000144aeae662aeb1f871ac217bb310d241c0f50590"
          ],
          "data": "0x00000000000000000000000000000000000000000000000000058347f76410000000000000000000000000000000000000000000000000055ae96ce943815cfc000000000000000000000000000000000000000000000033751c4fcb5fb4e2630000000000000000000000000000000000000000000000055ae3e9a14c1d4cfc0000000000000000000000000000000000000000000000337521d3135718f263",
          "blockHash": "0xcd1eaf54fc8ecca1776a923f59ecfd4d442c07e04b8ca7d4ed9a99c8ea77bfac",
          "blockNumber": "0x3a7dee1",
          "transactionHash": "0xbcbe541f380fabcc1b31bae6929f573e8fda174262b18dbf156881c177e410c0",
          "transactionIndex": "0x81",
          "logIndex": "0x282",
          "removed": false
        }
      ],
      "status": "0x1",
      "logsBloom": "0x00000000000000000000000000000000000000000000020000000000000000000000000000000000000000000000000100008000000000000000000000200000000000000000000008000000000000800000000000000000000100000000000000000000000000000000000000000000000000000000000080000000000008000000000000088000000000000000000000000000000000000400000010000000220000000000000000000000000000000000000000000000000000000000004000000000100000000001000000008800400000000000000000100000000000000010000000000000000000000000000000000000000000000000000000100000",
      "type": "0x0",
      "effectiveGasPrice": "0x6fc23ac2b"
    },
    {
      "transactionHash": "0xb20c2cbd013bfcb4a55f5fe15b55c56777cd36df92cc39b21978e5ae874aae88",
      "transactionIndex": "0x82",
      "blockHash": "0xcd1eaf54fc8ecca1776a923f59ecfd4d442c07e04b8ca7d4ed9a99c8ea77bfac",
      "blockNumber": "0x3a7dee1",
      "from": "0xBfE5E7792A91d6f91626d0F08c8052702c9b9c51",
      "to": "0x3255aca301b6c4D808103aB5ad243BeBDF1f419e",
      "cumulativeGasUsed": "0x11b28a9",
      "gasUsed": "0x1b9f2",
      "contractAddress": null,
      "logs": [
        {
          "address": "0xc2132D05D31c914a87C6611C10748AEb04B58e8F",
          "topics": [
            "0xddf252ad1be2c89b69c2b068fc378daa952ba7f163c4a11628f55a4df523b3ef",
            "0x000000000000000000000000bfe5e7792a91d6f91626d0f08c8052702c9b9c51",
            "0x000000000000000000000000bfe5e7792a91d6f91626d0f08c8052702c9b9c51"
          ],
          "data": "0x0000000000000000000000000000000000000000000000000000000000002710",
          "blockHash": "0xcd1eaf54fc8ecca1776a923f59ecfd4d442c07e04b8ca7d4ed9a99c8ea77bfac",
          "blockNumber": "0x3a7dee1",
          "transactionHash": "0xb20c2cbd013bfcb4a55f5fe15b55c56777cd36df92cc39b21978e5ae874aae88",
          "transactionIndex": "0x82",
          "logIndex": "0x283",
          "removed": false
        },
        {
          "address": "0xc2132D05D31c914a87C6611C10748AEb04B58e8F",
          "topics": [
            "0x8c5be1e5ebec7d5bd14f71427d1e84f3dd0314c0f7b2291e5b200ac8c7c3b925",
            "0x000000000000000000000000bfe5e7792a91d6f91626d0f08c8052702c9b9c51",
            "0x0000000000000000000000003255aca301b6c4d808103ab5ad243bebdf1f419e"
          ],
          "data": "0x0000000000000000000000000000000000000000000000000000000000986f70",
          "blockHash": "0xcd1eaf54fc8ecca1776a923f59ecfd4d442c07e04b8ca7d4ed9a99c8ea77bfac",
          "blockNumber": "0x3a7dee1",
          "transactionHash": "0xb20c2cbd013bfcb4a55f5fe15b55c56777cd36df92cc39b21978e5ae874aae88",
          "transactionIndex": "0x82",
          "logIndex": "0x284",
          "removed": false
        },
        {
          "address": "0x3255aca301b6c4D808103aB5ad243BeBDF1f419e",
          "topics": [
            "0xc3d58168c5ae7397731d063d5bbf3d657854427343f4c083240f7aacaa2d0f62",
            "0x000000000000000000000000bfe5e7792a91d6f91626d0f08c8052702c9b9c51",
            "0x0000000000000000000000000000000000000000000000000000000000000000",
            "0x000000000000000000000000bfe5e7792a91d6f91626d0f08c8052702c9b9c51"
          ],
          "data": "0x00000000000000000000000000000000000000000000000000000000000000010000000000000000000000000000000000000000000000000000000000000001",
          "blockHash": "0xcd1eaf54fc8ecca1776a923f59ecfd4d442c07e04b8ca7d4ed9a99c8ea77bfac",
          "blockNumber": "0x3a7dee1",
          "transactionHash": "0xb20c2cbd013bfcb4a55f5fe15b55c56777cd36df92cc39b21978e5ae874aae88",
          "transactionIndex": "0x82",
          "logIndex": "0x285",
          "removed": false
        },
        {
          "address": "0x3255aca301b6c4D808103aB5ad243BeBDF1f419e",
          "topics": [
            "0x1881dc1c9999400ab408158644d118cc2e75ef92c3cfb29e6d7c2df05b21036b",
            "0x0000000000000000000000000000000000000000000000000000000000000001",
            "0x000000000000000000000000bfe5e7792a91d6f91626d0f08c8052702c9b9c51"
          ],
          "data": "0x0000000000000000000000000000000000000000000000000000000000000001",
          "blockHash": "0xcd1eaf54fc8ecca1776a923f59ecfd4d442c07e04b8ca7d4ed9a99c8ea77bfac",
          "blockNumber": "0x3a7dee1",
          "transactionHash": "0xb20c2cbd013bfcb4a55f5fe15b55c56777cd36df92cc39b21978e5ae874aae88",
          "transactionIndex": "0x82",
          "logIndex": "0x286",
          "removed": false
        },
        {
          "address": "0x0000000000000000000000000000000000001010",
          "topics": [
            "0x4dfe1bbbcf077ddc3e01291eea2d5c70c2b422b415d95645b9adcfd678cb1d63",
            "0x0000000000000000000000000000000000000000000000000000000000001010",
            "0x000000000000000000000000bfe5e7792a91d6f91626d0f08c8052702c9b9c51",
            "0x000000000000000000000000144aeae662aeb1f871ac217bb310d241c0f50590"
          ],
          "data": "0x000000000000000000000000000000000000000000000000000c0ef3cd0498000000000000000000000000000000000000000000000000055ae3e9a14bfb5cf80000000000000000000000000000000000000000000000337521d3135718f2630000000000000000000000000000000000000000000000055ad7daad7ef6c4f8000000000000000000000000000000000000000000000033752de207241d8a63",
          "blockHash": "0xcd1eaf54fc8ecca1776a923f59ecfd4d442c07e04b8ca7d4ed9a99c8ea77bfac",
          "blockNumber": "0x3a7dee1",
          "transactionHash": "0xb20c2cbd013bfcb4a55f5fe15b55c56777cd36df92cc39b21978e5ae874aae88",
          "transactionIndex": "0x82",
          "logIndex": "0x287",
          "removed": false
        }
      ],
      "status": "0x1",
      "logsBloom": "0x00000000000000000000000000000000200000000000020000000000000000000000000000000000000000000000000100008000000000000000000000242000000000002000000008000008000000800000000000040000000100000000000001000000020000000000000000000800000000000000000080000010000008000000008000088000000000000000000000000000000000000400000010000000220000000000000000000000000000040000000000000000000000000000004000000002100000000001000000008800400000000008000000100000000060000010000000000000000000000000000001000000000000000000080000100000",
      "type": "0x0",
      "effectiveGasPrice": "0x6fc23ac2b"
    }
  ],
  "libraries": [],
  "pending": [],
  "returns": {},
  "timestamp": 1725270030,
  "chain": 137,
  "multi": false,
  "commit": "18fa437"
}