{
  "transactions": [
    {
      "hash": "0xebdd3d68320ee19da0c0638b289d83bf3ab0c75dbc97f4c6127b6b3d962c42b2",
      "transactionType": "CALL",
      "contractName": null,
      "contractAddress": "0xC3f1823dC102d95E063e8d226331356086945236",
      "function": "mint(uint256,uint256)",
      "arguments": [
        "1",
        "10"
      ],
      "transaction": {
        "type": "0x00",
        "from": "0xbfe5e7792a91d6f91626d0f08c8052702c9b9c51",
        "to": "0xc3f1823dc102d95e063e8d226331356086945236",
        "gas": "0x1ee61",
        "value": "0x0",
        "data": "0x1b2ef1ca0000000000000000000000000000000000000000000000000000000000000001000000000000000000000000000000000000000000000000000000000000000a",
        "nonce": "0x22"
      },
      "additionalContracts": [],
      "isFixedGasLimit": false
    }
  ],
  "receipts": [
    {
      "transactionHash": "0xebdd3d68320ee19da0c0638b289d83bf3ab0c75dbc97f4c6127b6b3d962c42b2",
      "transactionIndex": "0x46",
      "blockHash": "0x6c81c96f62c43d5bc1196c10c4e06d55275d8809f6726b16662aed1d923418fe",
      "blockNumber": "0x3ac0489",
      "from": "0xBfE5E7792A91d6f91626d0F08c8052702c9b9c51",
      "to": "0xC3f1823dC102d95E063e8d226331356086945236",
      "cumulativeGasUsed": "0xcaf052",
      "gasUsed": "0x1520a",
      "contractAddress": null,
      "logs": [
        {
          "address": "0xc2132D05D31c914a87C6611C10748AEb04B58e8F",
          "topics": [
            "0xddf252ad1be2c89b69c2b068fc378daa952ba7f163c4a11628f55a4df523b3ef",
            "0x000000000000000000000000bfe5e7792a91d6f91626d0f08c8052702c9b9c51",
            "0x000000000000000000000000e5eda14169623491d7ff5fbb8ac76a39b677ad4e"
          ],
          "data": "0x00000000000000000000000000000000000000000000000000000000000003e8",
          "blockHash": "0x6c81c96f62c43d5bc1196c10c4e06d55275d8809f6726b16662aed1d923418fe",
          "blockNumber": "0x3ac0489",
          "transactionHash": "0xebdd3d68320ee19da0c0638b289d83bf3ab0c75dbc97f4c6127b6b3d962c42b2",
          "transactionIndex": "0x46",
          "logIndex": "0x139",
          "removed": false
        },
        {
          "address": "0xc2132D05D31c914a87C6611C10748AEb04B58e8F",
          "topics": [
            "0x8c5be1e5ebec7d5bd14f71427d1e84f3dd0314c0f7b2291e5b200ac8c7c3b925",
            "0x000000000000000000000000bfe5e7792a91d6f91626d0f08c8052702c9b9c51",
            "0x000000000000000000000000c3f1823dc102d95e063e8d226331356086945236"
          ],
          "data": "0x00000000000000000000000000000000000000000000000000000000009890a4",
          "blockHash": "0x6c81c96f62c43d5bc1196c10c4e06d55275d8809f6726b16662aed1d923418fe",
          "blockNumber": "0x3ac0489",
          "transactionHash": "0xebdd3d68320ee19da0c0638b289d83bf3ab0c75dbc97f4c6127b6b3d962c42b2",
          "transactionIndex": "0x46",
          "logIndex": "0x13a",
          "removed": false
        },
        {
          "address": "0xC3f1823dC102d95E063e8d226331356086945236",
          "topics": [
            "0xc3d58168c5ae7397731d063d5bbf3d657854427343f4c083240f7aacaa2d0f62",
            "0x000000000000000000000000bfe5e7792a91d6f91626d0f08c8052702c9b9c51",
            "0x0000000000000000000000000000000000000000000000000000000000000000",
            "0x000000000000000000000000bfe5e7792a91d6f91626d0f08c8052702c9b9c51"
          ],
          "data": "0x0000000000000000000000000000000000000000000000000000000000000001000000000000000000000000000000000000000000000000000000000000000a",
          "blockHash": "0x6c81c96f62c43d5bc1196c10c4e06d55275d8809f6726b16662aed1d923418fe",
          "blockNumber": "0x3ac0489",
          "transactionHash": "0xebdd3d68320ee19da0c0638b289d83bf3ab0c75dbc97f4c6127b6b3d962c42b2",
          "transactionIndex": "0x46",
          "logIndex": "0x13b",
          "removed": false
        },
        {
          "address": "0xC3f1823dC102d95E063e8d226331356086945236",
          "topics": [
            "0x1881dc1c9999400ab408158644d118cc2e75ef92c3cfb29e6d7c2df05b21036b",
            "0x0000000000000000000000000000000000000000000000000000000000000001",
            "0x000000000000000000000000bfe5e7792a91d6f91626d0f08c8052702c9b9c51"
          ],
          "data": "0x000000000000000000000000000000000000000000000000000000000000000a",
          "blockHash": "0x6c81c96f62c43d5bc1196c10c4e06d55275d8809f6726b16662aed1d923418fe",
          "blockNumber": "0x3ac0489",
          "transactionHash": "0xebdd3d68320ee19da0c0638b289d83bf3ab0c75dbc97f4c6127b6b3d962c42b2",
          "transactionIndex": "0x46",
          "logIndex": "0x13c",
          "removed": false
        },
        {
          "address": "0x0000000000000000000000000000000000001010",
          "topics": [
            "0x4dfe1bbbcf077ddc3e01291eea2d5c70c2b422b415d95645b9adcfd678cb1d63",
            "0x0000000000000000000000000000000000000000000000000000000000001010",
            "0x000000000000000000000000bfe5e7792a91d6f91626d0f08c8052702c9b9c51",
            "0x0000000000000000000000001efecb61a2f80aa34d3b9218b564a64d05946290"
          ],
          "data": "0x0000000000000000000000000000000000000000000000000009392cf27a13ec000000000000000000000000000000000000000000000004194fcd07eebe12520000000000000000000000000000000000000000000003e4d60cb939a238338f000000000000000000000000000000000000000000000004194693dafc43fe660000000000000000000000000000000000000000000003e4d615f26694b2477b",
          "blockHash": "0x6c81c96f62c43d5bc1196c10c4e06d55275d8809f6726b16662aed1d923418fe",
          "blockNumber": "0x3ac0489",
          "transactionHash": "0xebdd3d68320ee19da0c0638b289d83bf3ab0c75dbc97f4c6127b6b3d962c42b2",
          "transactionIndex": "0x46",
          "logIndex": "0x13d",
          "removed": false
        }
      ],
      "status": "0x1",
      "logsBloom": "0x00000000000000000000000000000000000000000000000000000000000000020000000000000000000000000008000100008000000000000000000000242000200000001000000000000008000000800000000000040000000100000000000001000000020000008000000000000800000000000000400080000010000008000000008000080000000000000000000000000000000000000400000000000000220000000000000001000800000000040000000000000000000000000000004000000102000100000001000000000800400000000008000000100000000060002010000000000000000000000000000000000000000000000000180000100000",
      "type": "0x0",
      "effectiveGasPrice": "0x6fc23ac26"
    }
  ],
  "libraries": [],
  "pending": [],
  "returns": {},
  "timestamp": 1725865884,
  "chain": 137,
  "multi": false,
  "commit": "972b3ac"
}