{
  "transactions": [
    {
      "hash": "0xdb97717a8ee33ba559c608931717ccf394592aae4b09b39578d2b8629b4766f1",
      "transactionType": "CALL",
      "contractName": null,
      "contractAddress": "0x3255aca301b6c4D808103aB5ad243BeBDF1f419e",
      "function": "mint(uint256,uint256)",
      "arguments": [
        "1",
        "1"
      ],
      "transaction": {
        "type": "0x00",
        "from": "0xbfe5e7792a91d6f91626d0f08c8052702c9b9c51",
        "to": "0x3255aca301b6c4d808103ab5ad243bebdf1f419e",
        "gas": "0x1c2f6",
        "value": "0x0",
        "data": "0x1b2ef1ca00000000000000000000000000000000000000000000000000000000000000010000000000000000000000000000000000000000000000000000000000000001",
        "nonce": "0x7"
      },
      "additionalContracts": [],
      "isFixedGasLimit": false
    },
    {
      "hash": "0xacf47e643902209c59f2de05f9c705debd3da4c341d2d0241a86031fa8ba4267",
      "transactionType": "CALL",
      "contractName": null,
      "contractAddress": "0x3255aca301b6c4D808103aB5ad243BeBDF1f419e",
      "function": "mint(uint256,uint256)",
      "arguments": [
        "1",
        "2"
      ],
      "transaction": {
        "type": "0x00",
        "from": "0xbfe5e7792a91d6f91626d0f08c8052702c9b9c51",
        "to": "0x3255aca301b6c4d808103ab5ad243bebdf1f419e",
        "gas": "0x1c2f6",
        "value": "0x0",
        "data": "0x1b2ef1ca00000000000000000000000000000000000000000000000000000000000000010000000000000000000000000000000000000000000000000000000000000002",
        "nonce": "0x8"
      },
      "additionalContracts": [],
      "isFixedGasLimit": false
    }
  ],
  "receipts": [
    {
      "transactionHash": "0xdb97717a8ee33ba559c608931717ccf394592aae4b09b39578d2b8629b4766f1",
      "transactionIndex": "0x4c",
      "blockHash": "0xeb424cf505801c1ac7cb0ff52c1246ef87fc83ed681b902a37a2f364e5dfa5ac",
      "blockNumber": "0x3a7ec6a",
      "from": "0xBfE5E7792A91d6f91626d0F08c8052702c9b9c51",
      "to": "0x3255aca301b6c4D808103aB5ad243BeBDF1f419e",
      "cumulativeGasUsed": "0xa153e1",
      "gasUsed": "0x1345a",
      "contractAddress": null,
      "logs": [
        {
          "address": "0xc2132D05D31c914a87C6611C10748AEb04B58e8F",
          "topics": [
            "0xddf252ad1be2c89b69c2b068fc378daa952ba7f163c4a11628f55a4df523b3ef",
            "0x000000000000000000000000bfe5e7792a91d6f91626d0f08c8052702c9b9c51",
            "0x000000000000000000000000bfe5e7792a91d6f91626d0f08c8052702c9b9c51"
          ],
          "data": "0x0000000000000000000000000000000000000000000000000000000000002710",
          "blockHash": "0xeb424cf505801c1ac7cb0ff52c1246ef87fc83ed681b902a37a2f364e5dfa5ac",
          "blockNumber": "0x3a7ec6a",
          "transactionHash": "0xdb97717a8ee33ba559c608931717ccf394592aae4b09b39578d2b8629b4766f1",
          "transactionIndex": "0x4c",
          "logIndex": "0x15f",
          "removed": false
        },
        {
          "address": "0xc2132D05D31c914a87C6611C10748AEb04B58e8F",
          "topics": [
            "0x8c5be1e5ebec7d5bd14f71427d1e84f3dd0314c0f7b2291e5b200ac8c7c3b925",
            "0x000000000000000000000000bfe5e7792a91d6f91626d0f08c8052702c9b9c51",
            "0x0000000000000000000000003255aca301b6c4d808103ab5ad243bebdf1f419e"
          ],
          "data": "0x0000000000000000000000000000000000000000000000000000000000984860",
          "blockHash": "0xeb424cf505801c1ac7cb0ff52c1246ef87fc83ed681b902a37a2f364e5dfa5ac",
          "blockNumber": "0x3a7ec6a",
          "transactionHash": "0xdb97717a8ee33ba559c608931717ccf394592aae4b09b39578d2b8629b4766f1",
          "transactionIndex": "0x4c",
          "logIndex": "0x160",
          "removed": false
        },
        {
          "address": "0x3255aca301b6c4D808103aB5ad243BeBDF1f419e",
          "topics": [
            "0xc3d58168c5ae7397731d063d5bbf3d657854427343f4c083240f7aacaa2d0f62",
            "0x000000000000000000000000bfe5e7792a91d6f91626d0f08c8052702c9b9c51",
            "0x0000000000000000000000000000000000000000000000000000000000000000",
            "0x000000000000000000000000bfe5e7792a91d6f91626d0f08c8052702c9b9c51"
          ],
          "data": "0x00000000000000000000000000000000000000000000000000000000000000010000000000000000000000000000000000000000000000000000000000000001",
          "blockHash": "0xeb424cf505801c1ac7cb0ff52c1246ef87fc83ed681b902a37a2f364e5dfa5ac",
          "blockNumber": "0x3a7ec6a",
          "transactionHash": "0xdb97717a8ee33ba559c608931717ccf394592aae4b09b39578d2b8629b4766f1",
          "transactionIndex": "0x4c",
          "logIndex": "0x161",
          "removed": false
        },
        {
          "address": "0x3255aca301b6c4D808103aB5ad243BeBDF1f419e",
          "topics": [
            "0x1881dc1c9999400ab408158644d118cc2e75ef92c3cfb29e6d7c2df05b21036b",
            "0x0000000000000000000000000000000000000000000000000000000000000001",
            "0x000000000000000000000000bfe5e7792a91d6f91626d0f08c8052702c9b9c51"
          ],
          "data": "0x0000000000000000000000000000000000000000000000000000000000000001",
          "blockHash": "0xeb424cf505801c1ac7cb0ff52c1246ef87fc83ed681b902a37a2f364e5dfa5ac",
          "blockNumber": "0x3a7ec6a",
          "transactionHash": "0xdb97717a8ee33ba559c608931717ccf394592aae4b09b39578d2b8629b4766f1",
          "transactionIndex": "0x4c",
          "logIndex": "0x162",
          "removed": false
        },
        {
          "address": "0x0000000000000000000000000000000000001010",
          "topics": [
            "0x4dfe1bbbcf077ddc3e01291eea2d5c70c2b422b415d95645b9adcfd678cb1d63",
            "0x0000000000000000000000000000000000000000000000000000000000001010",
            "0x000000000000000000000000bfe5e7792a91d6f91626d0f08c8052702c9b9c51",
            "0x000000000000000000000000aa6ac02fddaaf6f120f5bb98ce30809d19cd5d1b"
          ],
          "data": "0x000000000000000000000000000000000000000000000000000869cf8f699b140000000000000000000000000000000000000000000000055ad7daad7eac8952000000000000000000000000000000000000000000001d4bc0216178dcc77c590000000000000000000000000000000000000000000000055acf70ddef42ee3e000000000000000000000000000000000000000000001d4bc029cb486c31176d",
          "blockHash": "0xeb424cf505801c1ac7cb0ff52c1246ef87fc83ed681b902a37a2f364e5dfa5ac",
          "blockNumber": "0x3a7ec6a",
          "transactionHash": "0xdb97717a8ee33ba559c608931717ccf394592aae4b09b39578d2b8629b4766f1",
          "transactionIndex": "0x4c",
          "logIndex": "0x163",
          "removed": false
        }
      ],
      "status": "0x1",
      "logsBloom": "0x00020000000000000000000000000000200000000000040000000000000000000000000000000000000000000000000100008000000000000000000000242000000000002000000000000008000000800000000000040000010100000000000001000000020000000000000000000800000000000000000080000010000008000000008000080000000000000000000000000000000000000400000010000000220000000000000000000000000000040000000000000000000000000000004000000002100000000001000000008800400000000008000000100000000060000010000000000000000000000000000001000000000000000000080000100000",
      "type": "0x0",
      "effectiveGasPrice": "0x6fc23ac13"
    },
    {
      "transactionHash": "0xacf47e643902209c59f2de05f9c705debd3da4c341d2d0241a86031fa8ba4267",
      "transactionIndex": "0x4f",
      "blockHash": "0xeb424cf505801c1ac7cb0ff52c1246ef87fc83ed681b902a37a2f364e5dfa5ac",
      "blockNumber": "0x3a7ec6a",
      "from": "0xBfE5E7792A91d6f91626d0F08c8052702c9b9c51",
      "to": "0x3255aca301b6c4D808103aB5ad243BeBDF1f419e",
      "cumulativeGasUsed": "0xa32c4b",
      "gasUsed": "0x1345a",
      "contractAddress": null,
      "logs": [
        {
          "address": "0xc2132D05D31c914a87C6611C10748AEb04B58e8F",
          "topics": [
            "0xddf252ad1be2c89b69c2b068fc378daa952ba7f163c4a11628f55a4df523b3ef",
            "0x000000000000000000000000bfe5e7792a91d6f91626d0f08c8052702c9b9c51",
            "0x000000000000000000000000bfe5e7792a91d6f91626d0f08c8052702c9b9c51"
          ],
          "data": "0x0000000000000000000000000000000000000000000000000000000000004e20",
          "blockHash": "0xeb424cf505801c1ac7cb0ff52c1246ef87fc83ed681b902a37a2f364e5dfa5ac",
          "blockNumber": "0x3a7ec6a",
          "transactionHash": "0xacf47e643902209c59f2de05f9c705debd3da4c341d2d0241a86031fa8ba4267",
          "transactionIndex": "0x4f",
          "logIndex": "0x168",
          "removed": false
        },
        {
          "address": "0xc2132D05D31c914a87C6611C10748AEb04B58e8F",
          "topics": [
            "0x8c5be1e5ebec7d5bd14f71427d1e84f3dd0314c0f7b2291e5b200ac8c7c3b925",
            "0x000000000000000000000000bfe5e7792a91d6f91626d0f08c8052702c9b9c51",
            "0x0000000000000000000000003255aca301b6c4d808103ab5ad243bebdf1f419e"
          ],
          "data": "0x000000000000000000000000000000000000000000000000000000000097fa40",
          "blockHash": "0xeb424cf505801c1ac7cb0ff52c1246ef87fc83ed681b902a37a2f364e5dfa5ac",
          "blockNumber": "0x3a7ec6a",
          "transactionHash": "0xacf47e643902209c59f2de05f9c705debd3da4c341d2d0241a86031fa8ba4267",
          "transactionIndex": "0x4f",
          "logIndex": "0x169",
          "removed": false
        },
        {
          "address": "0x3255aca301b6c4D808103aB5ad243BeBDF1f419e",
          "topics": [
            "0xc3d58168c5ae7397731d063d5bbf3d657854427343f4c083240f7aacaa2d0f62",
            "0x000000000000000000000000bfe5e7792a91d6f91626d0f08c8052702c9b9c51",
            "0x0000000000000000000000000000000000000000000000000000000000000000",
            "0x000000000000000000000000bfe5e7792a91d6f91626d0f08c8052702c9b9c51"
          ],
          "data": "0x00000000000000000000000000000000000000000000000000000000000000010000000000000000000000000000000000000000000000000000000000000002",
          "blockHash": "0xeb424cf505801c1ac7cb0ff52c1246ef87fc83ed681b902a37a2f364e5dfa5ac",
          "blockNumber": "0x3a7ec6a",
          "transactionHash": "0xacf47e643902209c59f2de05f9c705debd3da4c341d2d0241a86031fa8ba4267",
          "transactionIndex": "0x4f",
          "logIndex": "0x16a",
          "removed": false
        },
        {
          "address": "0x3255aca301b6c4D808103aB5ad243BeBDF1f419e",
          "topics": [
            "0x1881dc1c9999400ab408158644d118cc2e75ef92c3cfb29e6d7c2df05b21036b",
            "0x0000000000000000000000000000000000000000000000000000000000000001",
            "0x000000000000000000000000bfe5e7792a91d6f91626d0f08c8052702c9b9c51"
          ],
          "data": "0x0000000000000000000000000000000000000000000000000000000000000002",
          "blockHash": "0xeb424cf505801c1ac7cb0ff52c1246ef87fc83ed681b902a37a2f364e5dfa5ac",
          "blockNumber": "0x3a7ec6a",
          "transactionHash": "0xacf47e643902209c59f2de05f9c705debd3da4c341d2d0241a86031fa8ba4267",
          "transactionIndex": "0x4f",
          "logIndex": "0x16b",
          "removed": false
        },
        {
          "address": "0x0000000000000000000000000000000000001010",
          "topics": [
            "0x4dfe1bbbcf077ddc3e01291eea2d5c70c2b422b415d95645b9adcfd678cb1d63",
            "0x0000000000000000000000000000000000000000000000000000000000001010",
            "0x000000000000000000000000bfe5e7792a91d6f91626d0f08c8052702c9b9c51",
            "0x000000000000000000000000aa6ac02fddaaf6f120f5bb98ce30809d19cd5d1b"
          ],
          "data": "0x000000000000000000000000000000000000000000000000000869cf8f699b140000000000000000000000000000000000000000000000055acf70ddef1b2ea4000000000000000000000000000000000000000000001d4bc02e453f0892de8d0000000000000000000000000000000000000000000000055ac7070e5fb19390000000000000000000000000000000000000000000001d4bc036af0e97fc79a1",
          "blockHash": "0xeb424cf505801c1ac7cb0ff52c1246ef87fc83ed681b902a37a2f364e5dfa5ac",
          "blockNumber": "0x3a7ec6a",
          "transactionHash": "0xacf47e643902209c59f2de05f9c705debd3da4c341d2d0241a86031fa8ba4267",
          "transactionIndex": "0x4f",
          "logIndex": "0x16c",
          "removed": false
        }
      ],
      "status": "0x1",
      "logsBloom": "0x00020000000000000000000000000000200000000000040000000000000000000000000000000000000000000000000100008000000000000000000000242000000000002000000000000008000000800000000000040000010100000000000001000000020000000000000000000800000000000000000080000010000008000000008000080000000000000000000000000000000000000400000010000000220000000000000000000000000000040000000000000000000000000000004000000002100000000001000000008800400000000008000000100000000060000010000000000000000000000000000001000000000000000000080000100000",
      "type": "0x0",
      "effectiveGasPrice": "0x6fc23ac13"
    }
  ],
  "libraries": [],
  "pending": [],
  "returns": {},
  "timestamp": 1725277982,
  "chain": 137,
  "multi": false,
  "commit": "18fa437"
}