{
  "transactions": [
    {
      "hash": "0x17a8a207a4f3463e5d50c2c55cfa160fc6368e6328a7216f52a303c493fef8a2",
      "transactionType": "CALL",
      "contractName": "MiningPassFactory",
      "contractAddress": "0x793C94C1e45f9Bb5801E08898Ff16743a8561BcD",
      "function": "grantRole(bytes32,address)",
      "arguments": [
        "0x97667070c54ef182b0f5858b034beac1b6f3089aa2d3188bb1e8929f4fa9b929",
        "0xB90C7395D52e8af26773EB89250DbEaAAc107c01"
      ],
      "transaction": {
        "type": "0x00",
        "from": "0x3212dbfca59b74f5ed208b64f171a0c8bcf2e8c0",
        "to": "0x793c94c1e45f9bb5801e08898ff16743a8561bcd",
        "gas": "0x12633",
        "value": "0x0",
        "data": "0x2f2ff15d97667070c54ef182b0f5858b034beac1b6f3089aa2d3188bb1e8929f4fa9b929000000000000000000000000b90c7395d52e8af26773eb89250dbeaaac107c01",
        "nonce": "0x2"
      },
      "additionalContracts": [],
      "isFixedGasLimit": false
    }
  ],
  "receipts": [
    {
      "transactionHash": "0x17a8a207a4f3463e5d50c2c55cfa160fc6368e6328a7216f52a303c493fef8a2",
      "transactionIndex": "0x40",
      "blockHash": "0xde9cce3aa7d1246abb6693f14cb0e48cdf4af386a6664ce265b88a5cdc3ae019",
      "blockNumber": "0x3a97fe4",
      "from": "0x3212dBfCA59b74F5eD208b64f171a0C8BcF2e8C0",
      "to": "0x793C94C1e45f9Bb5801E08898Ff16743a8561BcD",
      "cumulativeGasUsed": "0x7eb723",
      "gasUsed": "0xc92a",
      "contractAddress": null,
      "logs": [
        {
          "address": "0x793C94C1e45f9Bb5801E08898Ff16743a8561BcD",
          "topics": [
            "0x2f8788117e7eff1d82e926ec794901d17c78024a50270940304540a733656f0d",
            "0x97667070c54ef182b0f5858b034beac1b6f3089aa2d3188bb1e8929f4fa9b929",
            "0x000000000000000000000000b90c7395d52e8af26773eb89250dbeaaac107c01",
            "0x0000000000000000000000003212dbfca59b74f5ed208b64f171a0c8bcf2e8c0"
          ],
          "data": "0x",
          "blockHash": "0xde9cce3aa7d1246abb6693f14cb0e48cdf4af386a6664ce265b88a5cdc3ae019",
          "blockNumber": "0x3a97fe4",
          "transactionHash": "0x17a8a207a4f3463e5d50c2c55cfa160fc6368e6328a7216f52a303c493fef8a2",
          "transactionIndex": "0x40",
          "logIndex": "0x12b",
          "removed": false
        },
        {
          "address": "0x0000000000000000000000000000000000001010",
          "topics": [
            "0x4dfe1bbbcf077ddc3e01291eea2d5c70c2b422b415d95645b9adcfd678cb1d63",
            "0x0000000000000000000000000000000000000000000000000000000000001010",
            "0x0000000000000000000000003212dbfca59b74f5ed208b64f171a0c8bcf2e8c0",
            "0x0000000000000000000000009ead03f7136fc6b4bdb0780b00a1c14ae5a8b6d0"
          ],
          "data": "0x00000000000000000000000000000000000000000000000000057167cbe5a5d600000000000000000000000000000000000000000000000089d562fed56ebb5800000000000000000000000000000000000000000000030bee5839eabf5edb9200000000000000000000000000000000000000000000000089cff1970989158200000000000000000000000000000000000000000000030bee5dab528b448168",
          "blockHash": "0xde9cce3aa7d1246abb6693f14cb0e48cdf4af386a6664ce265b88a5cdc3ae019",
          "blockNumber": "0x3a97fe4",
          "transactionHash": "0x17a8a207a4f3463e5d50c2c55cfa160fc6368e6328a7216f52a303c493fef8a2",
          "transactionIndex": "0x40",
          "logIndex": "0x12c",
          "removed": false
        }
      ],
      "status": "0x1",
      "logsBloom": "0x0000000400000000000000000010000000000000000000000000000000000040020000000000000000000000000000000000800000000000000000000000000000000000000000000000020000000080000200000000000000010000008000000000010000000a000000000000000000000000000000000080000000000000000040000000040000000000000000000008000000000000000000000000000000200000000000000000000000100000000000000000008000001000000000004000000000000000000001000000000000000000000000000100120000000000000000000000000000000000000000000000000000000000000000000000100000",
      "type": "0x0",
      "effectiveGasPrice": "0x6ed3cf9a1"
    }
  ],
  "libraries": [],
  "pending": [],
  "returns": {},
  "timestamp": 1725510644,
  "chain": 137,
  "multi": false,
  "commit": "d158120"
}