{
  "transactions": [
    {
      "hash": "0xc9b4e97dc0ad0ba05747d3087793d2349e9ce71cc1bfc2ae498f63d53ea7d59b",
      "transactionType": "CALL",
      "contractName": null,
      "contractAddress": "0x78137Bb8588D1a8942E73C62881482b1dc650F40",
      "function": "approve(address,uint256)",
      "arguments": [
        "0x7d72FC6F352290F262ee2E5dc5EEc12495084c4c",
        "100000000000000000000000000"
      ],
      "transaction": {
        "type": "0x00",
        "from": "0xbfe5e7792a91d6f91626d0f08c8052702c9b9c51",
        "to": "0x78137bb8588d1a8942e73c62881482b1dc650f40",
        "gas": "0x1090c",
        "value": "0x0",
        "data": "0x095ea7b30000000000000000000000007d72fc6f352290f262ee2e5dc5eec12495084c4c00000000000000000000000000000000000000000052b7d2dcc80cd2e4000000",
        "nonce": "0x8"
      },
      "additionalContracts": [],
      "isFixedGasLimit": false
    }
  ],
  "receipts": [],
  "libraries": [],
  "pending": [
    "0xc9b4e97dc0ad0ba05747d3087793d2349e9ce71cc1bfc2ae498f63d53ea7d59b"
  ],
  "returns": {},
  "timestamp": 1721809899,
  "chain": 80002,
  "multi": false,
  "commit": "9f9e051"
}