{
  "transactions": [
    {
      "hash": "0xea9eac14c47b443acfd9f4977de7400d640b9ac5494c7bcfd7cc6730a095bcc7",
      "transactionType": "CALL",
      "contractName": null,
      "contractAddress": "0x78137Bb8588D1a8942E73C62881482b1dc650F40",
      "function": "mint(address,uint256)",
      "arguments": [
        "0xBfE5E7792A91d6f91626d0F08c8052702c9b9c51",
        "100000000000000000000"
      ],
      "transaction": {
        "type": "0x00",
        "from": "0xbfe5e7792a91d6f91626d0f08c8052702c9b9c51",
        "to": "0x78137bb8588d1a8942e73c62881482b1dc650f40",
        "gas": "0x186f3",
        "value": "0x0",
        "data": "0x40c10f19000000000000000000000000bfe5e7792a91d6f91626d0f08c8052702c9b9c510000000000000000000000000000000000000000000000056bc75e2d63100000",
        "nonce": "0x7"
      },
      "additionalContracts": [],
      "isFixedGasLimit": false
    }
  ],
  "receipts": [
    {
      "transactionHash": "0xea9eac14c47b443acfd9f4977de7400d640b9ac5494c7bcfd7cc6730a095bcc7",
      "transactionIndex": "0x0",
      "blockHash": "0x48cff8b60e41fe06f4a13db49825a639d1a9937f2875dabb187384d5fcd9d67b",
      "blockNumber": "0x968d88",
      "from": "0xBfE5E7792A91d6f91626d0F08c8052702c9b9c51",
      "to": "0x78137Bb8588D1a8942E73C62881482b1dc650F40",
      "cumulativeGasUsed": "0x10b51",
      "gasUsed": "0x10b51",
      "contractAddress": null,
      "logs": [
        {
          "address": "0x78137Bb8588D1a8942E73C62881482b1dc650F40",
          "topics": [
            "0xddf252ad1be2c89b69c2b068fc378daa952ba7f163c4a11628f55a4df523b3ef",
            "0x0000000000000000000000000000000000000000000000000000000000000000",
            "0x000000000000000000000000bfe5e7792a91d6f91626d0f08c8052702c9b9c51"
          ],
          "data": "0x0000000000000000000000000000000000000000000000056bc75e2d63100000",
          "blockHash": "0x48cff8b60e41fe06f4a13db49825a639d1a9937f2875dabb187384d5fcd9d67b",
          "blockNumber": "0x968d88",
          "transactionHash": "0xea9eac14c47b443acfd9f4977de7400d640b9ac5494c7bcfd7cc6730a095bcc7",
          "transactionIndex": "0x0",
          "logIndex": "0x0",
          "removed": false
        },
        {
          "address": "0x0000000000000000000000000000000000001010",
          "topics": [
            "0x4dfe1bbbcf077ddc3e01291eea2d5c70c2b422b415d95645b9adcfd678cb1d63",
            "0x0000000000000000000000000000000000000000000000000000000000001010",
            "0x000000000000000000000000bfe5e7792a91d6f91626d0f08c8052702c9b9c51",
            "0x00000000000000000000000022b64229c41429a023549fdab3385893b579327a"
          ],
          "data": "0x0000000000000000000000000000000000000000000000000009b993fa2ce64100000000000000000000000000000000000000000000000000fb7cf37fe536c00000000000000000000000000000000000000000000000b27e41eca67a80c46300000000000000000000000000000000000000000000000000f1c35f85b8507f0000000000000000000000000000000000000000000000b27e4ba63a74adaaa4",
          "blockHash": "0x48cff8b60e41fe06f4a13db49825a639d1a9937f2875dabb187384d5fcd9d67b",
          "blockNumber": "0x968d88",
          "transactionHash": "0xea9eac14c47b443acfd9f4977de7400d640b9ac5494c7bcfd7cc6730a095bcc7",
          "transactionIndex": "0x0",
          "logIndex": "0x1",
          "removed": false
        }
      ],
      "status": "0x1",
      "logsBloom": "0x00000000000000000000000000000000000000000000000000000000000000000000000000000000000000000000000000008000000000000000000000000000000000000000000000000008000000800000000000000000000100000000000000000000020000000000000000000800000000000000000080000010000008000000000000200000000000000000000000000000000000000400010000000000200000000800000000000000000001000000000000000000000000002000004000000002000000000001000000000800000000000000000000100000004020000000000000000000000000000000000000000000000000000000000000100000",
      "type": "0x0",
      "effectiveGasPrice": "0x9502f9000"
    }
  ],
  "libraries": [],
  "pending": [],
  "returns": {},
  "timestamp": 1721809675,
  "chain": 80002,
  "multi": false,
  "commit": "9f9e051"
}