{
  "transactions": [
    {
      "hash": "0x0a5c94c66b57dc5b0f315a05777879bc8a1dce7e744810c6d5f7586a6d80a4ad",
      "transactionType": "CALL",
      "contractName": null,
      "contractAddress": "0x3255aca301b6c4D808103aB5ad243BeBDF1f419e",
      "function": "grantRole(bytes32,address)",
      "arguments": [
        "0x0d459ec518862ff123e698b9442f3bf61c5065ef3638701dba19bc4dc6486036",
        "0xBfE5E7792A91d6f91626d0F08c8052702c9b9c51"
      ],
      "transaction": {
        "type": "0x00",
        "from": "0xbfe5e7792a91d6f91626d0f08c8052702c9b9c51",
        "to": "0x3255aca301b6c4d808103ab5ad243bebdf1f419e",
        "gas": "0x9db8",
        "value": "0x0",
        "data": "0x2f2ff15d0d459ec518862ff123e698b9442f3bf61c5065ef3638701dba19bc4dc6486036000000000000000000000000bfe5e7792a91d6f91626d0f08c8052702c9b9c51",
        "nonce": "0x6"
      },
      "additionalContracts": [],
      "isFixedGasLimit": false
    }
  ],
  "receipts": [
    {
      "transactionHash": "0x0a5c94c66b57dc5b0f315a05777879bc8a1dce7e744810c6d5f7586a6d80a4ad",
      "transactionIndex": "0x0",
      "blockHash": "0x27f96c4aa5aa4f72cf61f5c8ede16404090ea8f8194cd762b2bb20dba6c81814",
      "blockNumber": "0x968c63",
      "from": "0xBfE5E7792A91d6f91626d0F08c8052702c9b9c51",
      "to": "0x3255aca301b6c4D808103aB5ad243BeBDF1f419e",
      "cumulativeGasUsed": "0x7230",
      "gasUsed": "0x7230",
      "contractAddress": null,
      "logs": [
        {
          "address": "0x0000000000000000000000000000000000001010",
          "topics": [
            "0x4dfe1bbbcf077ddc3e01291eea2d5c70c2b422b415d95645b9adcfd678cb1d63",
            "0x0000000000000000000000000000000000000000000000000000000000001010",
            "0x000000000000000000000000bfe5e7792a91d6f91626d0f08c8052702c9b9c51",
            "0x0000000000000000000000004ad84f7014b7b44f723f284a85b1662337971439"
          ],
          "data": "0x00000000000000000000000000000000000000000000000000041449034fa33000000000000000000000000000000000000000000000000000ff913c833b8ac00000000000000000000000000000000000000000000001cbe12e0905f938bb0f00000000000000000000000000000000000000000000000000fb7cf37febe7900000000000000000000000000000000000000000000001cbe1321d4efc885e3f",
          "blockHash": "0x27f96c4aa5aa4f72cf61f5c8ede16404090ea8f8194cd762b2bb20dba6c81814",
          "blockNumber": "0x968c63",
          "transactionHash": "0x0a5c94c66b57dc5b0f315a05777879bc8a1dce7e744810c6d5f7586a6d80a4ad",
          "transactionIndex": "0x0",
          "logIndex": "0x0",
          "removed": false
        }
      ],
      "status": "0x1",
      "logsBloom": "0x00000000000000000000000000000000000000000000000000000000000000000000000000000000000000000000000000008000000000000000000000400000000000000000000000000000000000800000000000000000000100001000000000000000000000000000000000000000000000000000000080000000000008000000000000000000000000000000000000000000000000000400000000000000200000000000000000000000000000000000000000000000000000000000004000000000000000000001000000000800000000000000000000100000000000000000000000000000000000000000008000000000000000000000000000100000",
      "type": "0x0",
      "effectiveGasPrice": "0x92535f9c0"
    }
  ],
  "libraries": [],
  "pending": [],
  "returns": {},
  "timestamp": 1721809052,
  "chain": 80002,
  "multi": false,
  "commit": "9f9e051"
}