{
  "transactions": [
    {
      "hash": "0x0a5c94c66b57dc5b0f315a05777879bc8a1dce7e744810c6d5f7586a6d80a4ad",
      "transactionType": "CALL",
      "contractName": null,
      "contractAddress": "0x3255aca301b6c4D808103aB5ad243BeBDF1f419e",
      "function": "grantRole(bytes32,address)",
      "arguments": [
        "0x0d459ec518862ff123e698b9442f3bf61c5065ef3638701dba19bc4dc6486036",
        "0xBfE5E7792A91d6f91626d0F08c8052702c9b9c51"
      ],
      "transaction": {
        "type": "0x00",
        "from": "0xbfe5e7792a91d6f91626d0f08c8052702c9b9c51",
        "to": "0x3255aca301b6c4d808103ab5ad243bebdf1f419e",
        "gas": "0x9db8",
        "value": "0x0",
        "data": "0x2f2ff15d0d459ec518862ff123e698b9442f3bf61c5065ef3638701dba19bc4dc6486036000000000000000000000000bfe5e7792a91d6f91626d0f08c8052702c9b9c51",
        "nonce": "0x6"
      },
      "additionalContracts": [],
      "isFixedGasLimit": false
    }
  ],
  "receipts": [],
  "libraries": [],
  "pending": [
    "0x0a5c94c66b57dc5b0f315a05777879bc8a1dce7e744810c6d5f7586a6d80a4ad"
  ],
  "returns": {},
  "timestamp": 1721809045,
  "chain": 80002,
  "multi": false,
  "commit": "9f9e051"
}