{
  "transactions": [
    {
      "hash": "0xc9b4e97dc0ad0ba05747d3087793d2349e9ce71cc1bfc2ae498f63d53ea7d59b",
      "transactionType": "CALL",
      "contractName": null,
      "contractAddress": "0x78137Bb8588D1a8942E73C62881482b1dc650F40",
      "function": "approve(address,uint256)",
      "arguments": [
        "0x7d72FC6F352290F262ee2E5dc5EEc12495084c4c",
        "100000000000000000000000000"
      ],
      "transaction": {
        "type": "0x00",
        "from": "0xbfe5e7792a91d6f91626d0f08c8052702c9b9c51",
        "to": "0x78137bb8588d1a8942e73c62881482b1dc650f40",
        "gas": "0x1090c",
        "value": "0x0",
        "data": "0x095ea7b30000000000000000000000007d72fc6f352290f262ee2e5dc5eec12495084c4c00000000000000000000000000000000000000000052b7d2dcc80cd2e4000000",
        "nonce": "0x8"
      },
      "additionalContracts": [],
      "isFixedGasLimit": false
    }
  ],
  "receipts": [
    {
      "transactionHash": "0xc9b4e97dc0ad0ba05747d3087793d2349e9ce71cc1bfc2ae498f63d53ea7d59b",
      "transactionIndex": "0x3",
      "blockHash": "0x77e0393a22b3a31c10aface155e92d452ae745111ef487057a27041de66dd18d",
      "blockNumber": "0x968df5",
      "from": "0xBfE5E7792A91d6f91626d0F08c8052702c9b9c51",
      "to": "0x78137Bb8588D1a8942E73C62881482b1dc650F40",
      "cumulativeGasUsed": "0x6a56e",
      "gasUsed": "0xb53b",
      "contractAddress": null,
      "logs": [
        {
          "address": "0x78137Bb8588D1a8942E73C62881482b1dc650F40",
          "topics": [
            "0x8c5be1e5ebec7d5bd14f71427d1e84f3dd0314c0f7b2291e5b200ac8c7c3b925",
            "0x000000000000000000000000bfe5e7792a91d6f91626d0f08c8052702c9b9c51",
            "0x0000000000000000000000007d72fc6f352290f262ee2e5dc5eec12495084c4c"
          ],
          "data": "0x00000000000000000000000000000000000000000052b7d2dcc80cd2e4000000",
          "blockHash": "0x77e0393a22b3a31c10aface155e92d452ae745111ef487057a27041de66dd18d",
          "blockNumber": "0x968df5",
          "transactionHash": "0xc9b4e97dc0ad0ba05747d3087793d2349e9ce71cc1bfc2ae498f63d53ea7d59b",
          "transactionIndex": "0x3",
          "logIndex": "0x8",
          "removed": false
        },
        {
          "address": "0x0000000000000000000000000000000000001010",
          "topics": [
            "0x4dfe1bbbcf077ddc3e01291eea2d5c70c2b422b415d95645b9adcfd678cb1d63",
            "0x0000000000000000000000000000000000000000000000000000000000001010",
            "0x000000000000000000000000bfe5e7792a91d6f91626d0f08c8052702c9b9c51",
            "0x0000000000000000000000004ad84f7014b7b44f723f284a85b1662337971439"
          ],
          "data": "0x000000000000000000000000000000000000000000000000000697d71bbb918b00000000000000000000000000000000000000000000000000f1c35f85a8a6c00000000000000000000000000000000000000000000001cc02cab9cd53f4fbc300000000000000000000000000000000000000000000000000eb2b8869ed15350000000000000000000000000000000000000000000001cc02d151a46fb08d4e",
          "blockHash": "0x77e0393a22b3a31c10aface155e92d452ae745111ef487057a27041de66dd18d",
          "blockNumber": "0x968df5",
          "transactionHash": "0xc9b4e97dc0ad0ba05747d3087793d2349e9ce71cc1bfc2ae498f63d53ea7d59b",
          "transactionIndex": "0x3",
          "logIndex": "0x9",
          "removed": false
        }
      ],
      "status": "0x1",
      "logsBloom": "0x00000000000000000000000000000000000000000000000000000000000000000000000000000000000000000000000000008000000000000000000000600000000000000000000000000000000000800000000000000000020100001000000000000020000000000000000000000000000000000000000080000000000008000000000000000000000000000000000000000000000000000400000000000000220000000800000000000000000001000000000000000800000000000000004000000000000000000001000000000800000000000000000000100000004000000010000000000000000000000000008000000000000000000000000000100000",
      "type": "0x0",
      "effectiveGasPrice": "0x9502f9000"
    }
  ],
  "libraries": [],
  "pending": [],
  "returns": {},
  "timestamp": 1721809906,
  "chain": 80002,
  "multi": false,
  "commit": "9f9e051"
}