{
  "transactions": [
    {
      "hash": "0xf3ffb3810904d49adfea55a53c43c8551b2a27a37beb3babf7bdff6d2d0e62e5",
      "transactionType": "CALL",
      "contractName": null,
      "contractAddress": "0x3255aca301b6c4D808103aB5ad243BeBDF1f419e",
      "function": "grantRole(bytes32,address)",
      "arguments": [
        "0x0d459ec518862ff123e698b9442f3bf61c5065ef3638701dba19bc4dc6486036",
        "0xBfE5E7792A91d6f91626d0F08c8052702c9b9c51"
      ],
      "transaction": {
        "type": "0x00",
        "from": "0xbfe5e7792a91d6f91626d0f08c8052702c9b9c51",
        "to": "0x3255aca301b6c4d808103ab5ad243bebdf1f419e",
        "gas": "0x115b2",
        "value": "0x0",
        "data": "0x2f2ff15d0d459ec518862ff123e698b9442f3bf61c5065ef3638701dba19bc4dc6486036000000000000000000000000bfe5e7792a91d6f91626d0f08c8052702c9b9c51",
        "nonce": "0x5"
      },
      "additionalContracts": [],
      "isFixedGasLimit": false
    }
  ],
  "receipts": [
    {
      "transactionHash": "0xf3ffb3810904d49adfea55a53c43c8551b2a27a37beb3babf7bdff6d2d0e62e5",
      "transactionIndex": "0x0",
      "blockHash": "0x7462e1d10308871c926fd186a7847b21d28dec6b49b9cbf7c5263f9e15e8b2a4",
      "blockNumber": "0x968c4d",
      "from": "0xBfE5E7792A91d6f91626d0F08c8052702c9b9c51",
      "to": "0x3255aca301b6c4D808103aB5ad243BeBDF1f419e",
      "cumulativeGasUsed": "0xc90d",
      "gasUsed": "0xc90d",
      "contractAddress": null,
      "logs": [
        {
          "address": "0x3255aca301b6c4D808103aB5ad243BeBDF1f419e",
          "topics": [
            "0x2f8788117e7eff1d82e926ec794901d17c78024a50270940304540a733656f0d",
            "0x0d459ec518862ff123e698b9442f3bf61c5065ef3638701dba19bc4dc6486036",
            "0x000000000000000000000000bfe5e7792a91d6f91626d0f08c8052702c9b9c51",
            "0x000000000000000000000000bfe5e7792a91d6f91626d0f08c8052702c9b9c51"
          ],
          "data": "0x",
          "blockHash": "0x7462e1d10308871c926fd186a7847b21d28dec6b49b9cbf7c5263f9e15e8b2a4",
          "blockNumber": "0x968c4d",
          "transactionHash": "0xf3ffb3810904d49adfea55a53c43c8551b2a27a37beb3babf7bdff6d2d0e62e5",
          "transactionIndex": "0x0",
          "logIndex": "0x0",
          "removed": false
        },
        {
          "address": "0x0000000000000000000000000000000000001010",
          "topics": [
            "0x4dfe1bbbcf077ddc3e01291eea2d5c70c2b422b415d95645b9adcfd678cb1d63",
            "0x0000000000000000000000000000000000000000000000000000000000001010",
            "0x000000000000000000000000bfe5e7792a91d6f91626d0f08c8052702c9b9c51",
            "0x0000000000000000000000006dc2dd54f24979ec26212794c71afefed722280c"
          ],
          "data": "0x00000000000000000000000000000000000000000000000000072eae44c9a6fd0000000000000000000000000000000000000000000000000106bfeac810f980000000000000000000000000000000000000000000000243ffa56e05ec52adfa00000000000000000000000000000000000000000000000000ff913c83475283000000000000000000000000000000000000000000000243ffac9cb4311c54f7",
          "blockHash": "0x7462e1d10308871c926fd186a7847b21d28dec6b49b9cbf7c5263f9e15e8b2a4",
          "blockNumber": "0x968c4d",
          "transactionHash": "0xf3ffb3810904d49adfea55a53c43c8551b2a27a37beb3babf7bdff6d2d0e62e5",
          "transactionIndex": "0x0",
          "logIndex": "0x1",
          "removed": false
        }
      ],
      "status": "0x1",
      "logsBloom": "0x00000004000000000000000000000000200000000000000000000000000000000000000000000000800000000000000000008000000000000000000000000000000000002000000000000000000000800000000000000000000100080000000000000000000000000000000000000000000000000000000080000000000008020200000000000000000000000040000000000000000000000400000000000000200000000000000000000000000000000000000000000000001000000000004000000000000000000201000000000800000000000000000100100000000000000000000000000000000000000000000001000000000000000000000000100000",
      "type": "0x0",
      "effectiveGasPrice": "0x92535f9c0"
    }
  ],
  "libraries": [],
  "pending": [],
  "returns": {},
  "timestamp": 1721809004,
  "chain": 80002,
  "multi": false,
  "commit": "9f9e051"
}