{
  "transactions": [
    {
      "hash": "0x69ce5e19f38ee0d30477683c5989eb5ad9db86268af9c4bad96693c7200b156c",
      "transactionType": "CALL",
      "contractName": null,
      "contractAddress": "0x78137Bb8588D1a8942E73C62881482b1dc650F40",
      "function": "approve(address,uint256)",
      "arguments": [
        "0x286A76B5127e526E0683aB1a94B9cfF0AB7cbE1c",
        "100000000000000000000000000"
      ],
      "transaction": {
        "type": "0x00",
        "from": "0xbfe5e7792a91d6f91626d0f08c8052702c9b9c51",
        "to": "0x78137bb8588d1a8942e73c62881482b1dc650f40",
        "gas": "0x1090c",
        "value": "0x0",
        "data": "0x095ea7b3000000000000000000000000286a76b5127e526e0683ab1a94b9cff0ab7cbe1c00000000000000000000000000000000000000000052b7d2dcc80cd2e4000000",
        "nonce": "0xb"
      },
      "additionalContracts": [],
      "isFixedGasLimit": false
    },
    {
      "hash": "0x0165d3afdab4714f658c1863d4f2ec0f0077826ded6c28b3809f6aee89462c64",
      "transactionType": "CALL",
      "contractName": null,
      "contractAddress": "0x286A76B5127e526E0683aB1a94B9cfF0AB7cbE1c",
      "function": "mint(address,uint256,address)",
      "arguments": [
        "0xBfE5E7792A91d6f91626d0F08c8052702c9b9c51",
        "1",
        "0x78137Bb8588D1a8942E73C62881482b1dc650F40"
      ],
      "transaction": {
        "type": "0x00",
        "from": "0xbfe5e7792a91d6f91626d0f08c8052702c9b9c51",
        "to": "0x286a76b5127e526e0683ab1a94b9cff0ab7cbe1c",
        "gas": "0x3594f",
        "value": "0x0",
        "data": "0x0d4d1513000000000000000000000000bfe5e7792a91d6f91626d0f08c8052702c9b9c51000000000000000000000000000000000000000000000000000000000000000100000000000000000000000078137bb8588d1a8942e73c62881482b1dc650f40",
        "nonce": "0xc"
      },
      "additionalContracts": [],
      "isFixedGasLimit": false
    }
  ],
  "receipts": [
    {
      "transactionHash": "0x69ce5e19f38ee0d30477683c5989eb5ad9db86268af9c4bad96693c7200b156c",
      "transactionIndex": "0x0",
      "blockHash": "0x082fb98c94b8036bb491437c51241ceada9027626607f6ac57bb80ac8ffed3f4",
      "blockNumber": "0x968f00",
      "from": "0xBfE5E7792A91d6f91626d0F08c8052702c9b9c51",
      "to": "0x78137Bb8588D1a8942E73C62881482b1dc650F40",
      "cumulativeGasUsed": "0xb53b",
      "gasUsed": "0xb53b",
      "contractAddress": null,
      "logs": [
        {
          "address": "0x78137Bb8588D1a8942E73C62881482b1dc650F40",
          "topics": [
            "0x8c5be1e5ebec7d5bd14f71427d1e84f3dd0314c0f7b2291e5b200ac8c7c3b925",
            "0x000000000000000000000000bfe5e7792a91d6f91626d0f08c8052702c9b9c51",
            "0x000000000000000000000000286a76b5127e526e0683ab1a94b9cff0ab7cbe1c"
          ],
          "data": "0x00000000000000000000000000000000000000000052b7d2dcc80cd2e4000000",
          "blockHash": "0x082fb98c94b8036bb491437c51241ceada9027626607f6ac57bb80ac8ffed3f4",
          "blockNumber": "0x968f00",
          "transactionHash": "0x69ce5e19f38ee0d30477683c5989eb5ad9db86268af9c4bad96693c7200b156c",
          "transactionIndex": "0x0",
          "logIndex": "0x0",
          "removed": false
        },
        {
          "address": "0x0000000000000000000000000000000000001010",
          "topics": [
            "0x4dfe1bbbcf077ddc3e01291eea2d5c70c2b422b415d95645b9adcfd678cb1d63",
            "0x0000000000000000000000000000000000000000000000000000000000001010",
            "0x000000000000000000000000bfe5e7792a91d6f91626d0f08c8052702c9b9c51",
            "0x0000000000000000000000006dc2dd54f24979ec26212794c71afefed722280c"
          ],
          "data": "0x000000000000000000000000000000000000000000000000000697d71bbb918b00000000000000000000000000000000000000000000000002d32b249d4276c000000000000000000000000000000000000000000000024407433986e698ba3d00000000000000000000000000000000000000000000000002cc934d8186e5350000000000000000000000000000000000000000000002440749d15e02544bc8",
          "blockHash": "0x082fb98c94b8036bb491437c51241ceada9027626607f6ac57bb80ac8ffed3f4",
          "blockNumber": "0x968f00",
          "transactionHash": "0x69ce5e19f38ee0d30477683c5989eb5ad9db86268af9c4bad96693c7200b156c",
          "transactionIndex": "0x0",
          "logIndex": "0x1",
          "removed": false
        }
      ],
      "status": "0x1",
      "logsBloom": "0x00000000000000000000000000000000000000000000000000000000000000000000000000000000000000000000004000008000000000000000000000200000000000000000000000000000000000800000000000000000000100080000000001000000000000200000000000000000000000000000000080000000000008020000000000000000000000000040000000000000000000000400000000000000220000000800000000000000000001000000000000000000000000000000004000000000000000000001000000000800000000000000000000100000004000000010000000000000000000000000000000000000000000000000000000100000",
      "type": "0x0",
      "effectiveGasPrice": "0x9502f9000"
    },
    {
      "transactionHash": "0x0165d3afdab4714f658c1863d4f2ec0f0077826ded6c28b3809f6aee89462c64",
      "transactionIndex": "0x1",
      "blockHash": "0x082fb98c94b8036bb491437c51241ceada9027626607f6ac57bb80ac8ffed3f4",
      "blockNumber": "0x968f00",
      "from": "0xBfE5E7792A91d6f91626d0F08c8052702c9b9c51",
      "to": "0x286A76B5127e526E0683aB1a94B9cfF0AB7cbE1c",
      "cumulativeGasUsed": "0x321e9",
      "gasUsed": "0x26cae",
      "contractAddress": null,
      "logs": [
        {
          "address": "0x78137Bb8588D1a8942E73C62881482b1dc650F40",
          "topics": [
            "0xddf252ad1be2c89b69c2b068fc378daa952ba7f163c4a11628f55a4df523b3ef",
            "0x000000000000000000000000bfe5e7792a91d6f91626d0f08c8052702c9b9c51",
            "0x000000000000000000000000286a76b5127e526e0683ab1a94b9cff0ab7cbe1c"
          ],
          "data": "0x0000000000000000000000000000000000000000000000008ac7230489e80000",
          "blockHash": "0x082fb98c94b8036bb491437c51241ceada9027626607f6ac57bb80ac8ffed3f4",
          "blockNumber": "0x968f00",
          "transactionHash": "0x0165d3afdab4714f658c1863d4f2ec0f0077826ded6c28b3809f6aee89462c64",
          "transactionIndex": "0x1",
          "logIndex": "0x2",
          "removed": false
        },
        {
          "address": "0x286A76B5127e526E0683aB1a94B9cfF0AB7cbE1c",
          "topics": [
            "0xddf252ad1be2c89b69c2b068fc378daa952ba7f163c4a11628f55a4df523b3ef",
            "0x0000000000000000000000000000000000000000000000000000000000000000",
            "0x000000000000000000000000bfe5e7792a91d6f91626d0f08c8052702c9b9c51",
            "0x0000000000000000000000000000000000000000000000000000000000000000"
          ],
          "data": "0x",
          "blockHash": "0x082fb98c94b8036bb491437c51241ceada9027626607f6ac57bb80ac8ffed3f4",
          "blockNumber": "0x968f00",
          "transactionHash": "0x0165d3afdab4714f658c1863d4f2ec0f0077826ded6c28b3809f6aee89462c64",
          "transactionIndex": "0x1",
          "logIndex": "0x3",
          "removed": false
        },
        {
          "address": "0x286A76B5127e526E0683aB1a94B9cfF0AB7cbE1c",
          "topics": [
            "0xe5c537efa01b97e804f88e049717278875ffc65cf59289357849620c8e332907"
          ],
          "data": "0x000000000000000000000000bfe5e7792a91d6f91626d0f08c8052702c9b9c510000000000000000000000000000000000000000000000000000000000000000000000000000000000000000000000000000000000000000000000000000000100000000000000000000000078137bb8588d1a8942e73c62881482b1dc650f40",
          "blockHash": "0x082fb98c94b8036bb491437c51241ceada9027626607f6ac57bb80ac8ffed3f4",
          "blockNumber": "0x968f00",
          "transactionHash": "0x0165d3afdab4714f658c1863d4f2ec0f0077826ded6c28b3809f6aee89462c64",
          "transactionIndex": "0x1",
          "logIndex": "0x4",
          "removed": false
        },
        {
          "address": "0x0000000000000000000000000000000000001010",
          "topics": [
            "0x4dfe1bbbcf077ddc3e01291eea2d5c70c2b422b415d95645b9adcfd678cb1d63",
            "0x0000000000000000000000000000000000000000000000000000000000001010",
            "0x000000000000000000000000bfe5e7792a91d6f91626d0f08c8052702c9b9c51",
            "0x0000000000000000000000006dc2dd54f24979ec26212794c71afefed722280c"
          ],
          "data": "0x00000000000000000000000000000000000000000000000000169487b0ef81ce00000000000000000000000000000000000000000000000002cc934d817c46c00000000000000000000000000000000000000000000002440749d15e02544bc800000000000000000000000000000000000000000000000002b5fec5d08cc4f2000000000000000000000000000000000000000000000244076065e5b343cd96",
          "blockHash": "0x082fb98c94b8036bb491437c51241ceada9027626607f6ac57bb80ac8ffed3f4",
          "blockNumber": "0x968f00",
          "transactionHash": "0x0165d3afdab4714f658c1863d4f2ec0f0077826ded6c28b3809f6aee89462c64",
          "transactionIndex": "0x1",
          "logIndex": "0x5",
          "removed": false
        }
      ],
      "status": "0x1",
      "logsBloom": "0x00000000000000000000000000000000000000000000000000000000000000020000000000000020000000000001004000008000000000000000000000000000000000000000000000000008000000800000000000000000000101080000000001000000020000200800000000000800000000010000000080000010000008020000000000000000000000000040000000000000000000000400000000000000200000000800000000000000000001000000000000000000000000000000004000000002000000000001000000000800000000000000000000100000004020000000000000000000000000000000000000000000000000000000000000100000",
      "type": "0x0",
      "effectiveGasPrice": "0x9502f9000"
    }
  ],
  "libraries": [],
  "pending": [],
  "returns": {},
  "timestamp": 1721810474,
  "chain": 80002,
  "multi": false,
  "commit": "9f9e051"
}