{
  "transactions": [
    {
      "hash": "0xa631b45dfaf097d72885e344a41f141a336a9cdbe5ac4b0ce7fa67d5f1785fc9",
      "transactionType": "CALL",
      "contractName": null,
      "contractAddress": "0x3255aca301b6c4D808103aB5ad243BeBDF1f419e",
      "function": "setPassManagerAddress(uint256,address)",
      "arguments": [
        "1",
        "0x286A76B5127e526E0683aB1a94B9cfF0AB7cbE1c"
      ],
      "transaction": {
        "type": "0x00",
        "from": "0xbfe5e7792a91d6f91626d0f08c8052702c9b9c51",
        "to": "0x3255aca301b6c4d808103ab5ad243bebdf1f419e",
        "gas": "0x9f13",
        "value": "0x0",
        "data": "0x15684e650000000000000000000000000000000000000000000000000000000000000001000000000000000000000000286a76b5127e526e0683ab1a94b9cff0ab7cbe1c",
        "nonce": "0xd"
      },
      "additionalContracts": [],
      "isFixedGasLimit": false
    },
    {
      "hash": "0x3a956699bbf5ff490653388f12cf7d0c9f7c6041ae8ce08ad1f111a30a40f147",
      "transactionType": "CALL",
      "contractName": null,
      "contractAddress": "0x3255aca301b6c4D808103aB5ad243BeBDF1f419e",
      "function": "listMachine(string,uint256,address)",
      "arguments": [
        "\"11111111\"",
        "1",
        "0xBfE5E7792A91d6f91626d0F08c8052702c9b9c51"
      ],
      "transaction": {
        "type": "0x00",
        "from": "0xbfe5e7792a91d6f91626d0f08c8052702c9b9c51",
        "to": "0x3255aca301b6c4d808103ab5ad243bebdf1f419e",
        "gas": "0x1c659",
        "value": "0x0",
        "data": "0x5cf3789100000000000000000000000000000000000000000000000000000000000000600000000000000000000000000000000000000000000000000000000000000001000000000000000000000000bfe5e7792a91d6f91626d0f08c8052702c9b9c5100000000000000000000000000000000000000000000000000000000000000083131313131313131000000000000000000000000000000000000000000000000",
        "nonce": "0xe"
      },
      "additionalContracts": [],
      "isFixedGasLimit": false
    },
    {
      "hash": "0x0f47e421574b052eed97ca70a48ac160b7a3e4304cc2a38faa2a2a93e039ad3c",
      "transactionType": "CALL",
      "contractName": null,
      "contractAddress": "0x286A76B5127e526E0683aB1a94B9cfF0AB7cbE1c",
      "function": "approve(address,uint256)",
      "arguments": [
        "0x3255aca301b6c4D808103aB5ad243BeBDF1f419e",
        "0"
      ],
      "transaction": {
        "type": "0x00",
        "from": "0xbfe5e7792a91d6f91626d0f08c8052702c9b9c51",
        "to": "0x286a76b5127e526e0683ab1a94b9cff0ab7cbe1c",
        "gas": "0x11610",
        "value": "0x0",
        "data": "0x095ea7b30000000000000000000000003255aca301b6c4d808103ab5ad243bebdf1f419e0000000000000000000000000000000000000000000000000000000000000000",
        "nonce": "0xf"
      },
      "additionalContracts": [],
      "isFixedGasLimit": false
    },
    {
      "hash": "0xda2a24a46cd5eef47cc3f6d56c58180817b4e9f3d2a75ee605e22fe0f7d8c51f",
      "transactionType": "CALL",
      "contractName": null,
      "contractAddress": "0x3255aca301b6c4D808103aB5ad243BeBDF1f419e",
      "function": "borrowMachine(address,string,uint256)",
      "arguments": [
        "0xBfE5E7792A91d6f91626d0F08c8052702c9b9c51",
        "\"11111111\"",
        "0"
      ],
      "transaction": {
        "type": "0x00",
        "from": "0xbfe5e7792a91d6f91626d0f08c8052702c9b9c51",
        "to": "0x3255aca301b6c4d808103ab5ad243bebdf1f419e",
        "gas": "0x2313e",
        "value": "0x0",
        "data": "0x347bb6d6000000000000000000000000bfe5e7792a91d6f91626d0f08c8052702c9b9c510000000000000000000000000000000000000000000000000000000000000060000000000000000000000000000000000000000000000000000000000000000000000000000000000000000000000000000000000000000000000000000000083131313131313131000000000000000000000000000000000000000000000000",
        "nonce": "0x10"
      },
      "additionalContracts": [],
      "isFixedGasLimit": false
    }
  ],
  "receipts": [],
  "libraries": [],
  "pending": [
    "0xa631b45dfaf097d72885e344a41f141a336a9cdbe5ac4b0ce7fa67d5f1785fc9",
    "0x3a956699bbf5ff490653388f12cf7d0c9f7c6041ae8ce08ad1f111a30a40f147",
    "0x0f47e421574b052eed97ca70a48ac160b7a3e4304cc2a38faa2a2a93e039ad3c",
    "0xda2a24a46cd5eef47cc3f6d56c58180817b4e9f3d2a75ee605e22fe0f7d8c51f"
  ],
  "returns": {},
  "timestamp": 1721810603,
  "chain": 80002,
  "multi": false,
  "commit": "9f9e051"
}